:060000000C944B000C946F
:100006007B000C9492000C9400000C9400000C945D
:1000160000000C9400000C9400000C9400000C945A
:1000260000000C9400000C9400000C9400000C944A
:1000360000000C9400000C9400000C9400000C943A
:1000460000000C9400000C9400000C9400000100C9
:100056000100070002000000000000002A005D0009
:100066005B0080C001006601540001006801560073
:100076000200600162000200620164000200640185
:1000860066000A000400580002006A0168000000C9
:10009600F894EE27ECBBF1E0FBBFEBBFE5BFF8E160
:1000A600F1BDE1BD8DE0A2E0BB27ED938A95E9F7AE
:1000B60080E094E0A0E6ED930197E9F7EAE6F0E048
:1000C60085919591009761F0A591B5910590159050
:1000D600BF01F00105900D920197E1F7FB01F0CF0A
:1000E600EFE5EDBFE4E0EEBFC0E6D1E00C94AF0073
:1000F6000E94E001A0E09899A1E0A03029F4E3E095
:10010600F0E0E815F90509F003C0F401319605C0E1
:10011600082C092819F0F40131974F0116C00E94E6
:10012600E001A0E08499A1E0A03029F4E3E0F0E04A
:10013600EA15FB0509F403C0F501319605C00A2C42
:100146000B2819F0F50131975F01E991EFBFF9919D
:10015600E991A99109901895E0E0EBBBEABBE8BBF1
:10016600E7BBE5BBE4BBE2BBE1BBE3BFE2BFECBF81
:10017600EFBDEEBDEDBDECBDE7BDE6BDEBBDEABD39
:10018600E9BDE8BDE2BDE5BDE4BDE3BDEBB7E06CAE
:10019600EBBFEAE0E5BFE0E0E4BFE0ECEABFE0E0A9
:1001A600E9BFEAB9E0E8E8B9E0E0E0BFE6B9EDB9F1
:1001B600E6BFA0E1D8D078944A92A62D82D0A0E6D8
:1001C600B1E0C0D0E0E0EA93A82D7BD0A2E6B1E092
:1001D600B9D0EFE0EA93AA2D74D0A4E6B1E0B2D08C
:1001E600A4E6F2D0A0916601B0916701119719F4C7
:1001F600F20131962F01E0916601F0916701309787
:1002060021F4F20131972F013196A0916801B09146
:100216006901119719F4F30131963F01E0916801E4
:10022600F0916901309721F4F30131973F0131963E
:10023600E3E0F0E0E615F70529F4E0E0E093680175
:10024600E0936901062C072831F4E1E0F0E0E09341
:100256006801F0936901E1E0F0E0E415F50521F4A9
:10026600E0936601F0936701EEE0F0E0E415F50532
:1002760029F4E0E0E0936601E093670133D09CCF78
:10028600FFCFAA93EBB3EF70AE2FE881E07FEA2BA6
:10029600EBBB85E08A95F1F7DA9A8DE08A95F1F75E
:1002A600DA988DE08A95F1F786C0AA93A881E9DFEE
:1002B600E881E295E883A881E4DF85E88A95F1F78D
:1002C6007AC0AA93E881F0E0E659FE4FE081A98161
:1002D600AE0FEBDFE981E0936E01E881E0936F01F9
:1002E60022960895A2E0E1DFA3E06ED0ACE0DDDF68
:1002F600A1E0DBDFA3E068D0E0E0E0936F01E093EC
:100306006E010895AA93A881AA3031F0E091700198
:10031600A0916E01AE1760F0E0E0EA93A0916F0144
:10032600AF5FA0936F01CDDFA881AA3009F443C067
:10033600E0916E01EF5FE0936E01D89AA881B5DF78
:10034600D89839C0BA93AA931A93A981BA81ED9124
:10035600A983BA831E2FE03019F0A12FD3DFF5CF82
:10036600188123960895AA93EAB3E06FEABBD29A5E
:10037600D09AD19ADA98D898D998E881E093700102
:10038600E058E0936C01E881E054E0936D01A4E14C
:100396001BD01DD01CD01BD0A0E273DF88EC90E0F0
:1003A6000197F1F7A8E281DFA4E07FDFA5E87DDF12
:1003B600A6E07BDF97DF219608950A92AA93EA9337
:1003C600FA93EFB7EA930895B0E00C94F101A0E335
:1003D60058DF88EC90E00197F1F70895109639F010
:1003E60080ED97E00197F1F7A8951197C9F7089561
:00000001FF
