:080000000C945F000C948F00CA
:100008000C94A6000C9400000C9400000C940000C2
:100018000C9400000C9400000C9400000C94000058
:100028000C9400000C9400000C9400000C94000048
:100038000C9400000C9400000C9400000C94000038
:100048000C9400000C9400000C94000001000100C6
:10005800070002000000000000002A005D005B00AD
:10006800706C6179657220322077696E7300706CEC
:100078006179657220312077696E730080C0010054
:1000880084015400010086015600020060016200EC
:100098000200620164000200640166000E0066014D
:1000A80068000E00740176000A000400580002007F
:1000B800880184000000F894EE27ECBBF1E0FBBF58
:1000C800EBBFE5BFF8E1F1BDE1BD8DE0A2E0BB27E4
:1000D800ED938A95E9F780E094E0A0E6ED93019727
:1000E800E9F7E6E8F0E085919591009761F0A59130
:1000F800B59105901590BF01F00105900D920197FB
:10010800E1F7FB01F0CFEFE5EDBFE4E0EEBFC0E6BD
:10011800D1E00C94C3000E940902A0E09899A1E0E4
:10012800A03029F4E3E0F0E0E815F90509F403C08C
:10013800F401319605C0082C092819F0F40131970B
:100148004F0116C00E940902A0E08499A1E0A030E6
:1001580029F4E3E0F0E0EA15FB0509F403C0F50132
:10016800319605C00A2C0B2819F0F50131975F016B
:10017800E991EFBFF991E991A99109901895E0E00B
:10018800EBBBEABBE8BBEFEFE7BBE5BBE0ECE4BBEE
:10019800EFEFE2BBE0E0E1BBE3BFE2BFECBFEFBDE6
:1001A800EEBDEDBDECBDE7BDE6BDEBBDEABDE9BD0D
:1001B800E8BDE2BDE5BDE4BDE3BDEBB7E06CEBBF78
:1001C800EFE0E5BFE0E0E4BFE0ECEABFE0E0E9BF74
:1001D800EAB9E0E8E8B9E0E0E0BFE6B9EDB9E6BFC2
:1001E800A0E1E7D078944A92A62D95D0A0E6B1E098
:1001F800CFD0E0E0EA93A82D8ED0A2E6B1E0C8D037
:10020800EFE0EA93AA2D87D0A4E6B1E005D1A0914A
:100218008401B0918501119719F4F20131962F01EB
:10022800E0918401F0918501309721F4F201319732
:100238002F013196A0918601B0918701119719F489
:10024800F30131963F01E0918601F09187013097E3
:1002580021F4F30131973F013196E3E0F0E0E61530
:10026800F70529F4E0E0E0938601E0938701062C86
:10027800072809F4D6D0E1E0F0E0E415F50591F49B
:10028800D7D06814790471F0DAD0CBD0A2E8B1E005
:10029800ED91FD913196FE93EE9331974DD0A6E600
:1002A800B1E0BAD0EEE0F0E0E415F50589F4E0E05D
:1002B800E0938401E09385016A147B0449F0BFD080
:1002C800B0D0F60131966F0137D0A4E7B1E0A4D0E1
:1002D80033D089CFFFCFAA93EBB3EF70AE2FE8816D
:1002E800E07FEA2BEBBB85E08A95F1F7DA9A8DE09F
:1002F8008A95F1F7DA988DE08A95F1F784C0AA9388
:10030800A881E9DFE881E295E883A881E4DF85E850
:100318008A95F1F778C0AA93E881F0E0E857FE4F94
:10032800E081A981AE0FEBDFE981E0938C01E881E0
:10033800E0938D0122960895A2E08CD0ACE0DFDF37
:10034800A1E088D0E0E0E0938D01E0938C0108956E
:10035800AA93A881AA3031F0E0918E01A0918C0176
:10036800AE1760F0E0E0EA93A0918D01AF5FA09333
:100378008D01D1DFA881AA3009F445C0E0918C0134
:10038800EF5FE0938C01D89AA881B9DFD8983BC079
:10039800BA93AA931A93A981BA81ED91A983BA83D2
:1003A8001E2FE03019F0A12FD3DFF5CF1881239647
:1003B8000895AA93EAB3E06FEABBD29AD09AD19A89
:1003C800DA98D898D998E881E0938E01E058E093BC
:1003D8008A01E881E054E0938B01A4E1B0E00E9437
:1003E8003A023DD03CD03BD0A0E275DF88EC90E0EB
:1003F8000197F1F7A8E283DFA4E081DFA5E87FDFBA
:10040800A6E07DDF99DF219608950A92AA93EA93E0
:10041800FA93EFB7EA930895BBDFA4E6B0E00C9433
:100428003A02E1E0F0E0E0938601F0938701089555
:10043800E1E0F0E0E0938401F093850108958824D9
:100448009924AA24BB24E7E0F0E02F01E2E0F0E0E1
:100458003F01EECF54DFA3E0B0E00C943A02A0E3F2
:100468003ADF88EC90E00197F1F70895109639F09B
:1004780080ED97E00197F1F7A8951197C9F70895CE
:00000001FF
